:100000000C9463000C948B000C948B000C948B006C
:100010000C948B000C948B000C948B000C948B0034
:100020000C948B000C948B000C948B000C948B0024
:100030000C948B000C948B000C948B000C948B0014
:100040000C9405030C948B000C9475040C948B0099
:100050000C948B000C948B000C948B000C948B00F4
:100060000C948B000C948B000000000024002700EF
:100070002A0000000000250028002B0000000000DE
:1000800023002600290004040404040404040202DA
:100090000202020203030303030301020408102007
:1000A0004080010204081020010204081020000012
:1000B0000007000201000003040600000000000029
:1000C0000000EE00BE0511241FBECFEFD4E0DEBF5E
:1000D000CDBF11E0A0E0B1E0E2EDF2E102C0059099
:1000E0000D92A837B107D9F712E0A8E7B1E001C037
:1000F0001D92AC32B107E1F710E0C6ECD0E004C0CD
:100100002297FE010E942C09C23CD107C9F70E9428
:10011000FE020C9467090C940000A0E0B0E0E3E953
:10012000F0E00C943809EC01A880B980CA80DB802B
:10013000A114B104C104D10441F484E2A82E89EDD4
:10014000B82E8BE5C82E87E0D82EC601B5012DE16B
:1001500033EF41E050E00E94FB0827EA31E440E041
:1001600050E00E94A7087B018C01C601B5012DE17A
:1001700033EF41E050E00E94FB08CA01B9012CEEC8
:1001800034EF4FEF5FEF0E94A7086E0D7F1D801FB9
:10019000911F97FF04C06150704080409048688371
:1001A00079838A839B839B01AC015F77B901CA0184
:1001B000CDB7DEB7EAE00C9454090E948D00089593
:1001C00080E091E00E948D0008956093000170939B
:1001D0000101809302019093030108950E945B0343
:1001E00060938001709381018093820190938301D9
:1001F0000E944D0360938401709385018093860172
:10020000909387010E944D032091060130910701D0
:10021000442737FD4095542F260F371F481F591F7D
:10022000209388013093890140938A0150938B0178
:10023000089580917E0190917F01892B51F481E096
:1002400090E090937F0180937E018091040161E0B2
:1002500007C010927F0110927E018091040160E03E
:100260000E94280408950F931F93182F062F8AE0E9
:1002700060E00E9428041EBD0DB407FEFDCF8EB5C0
:100280000EBD0DB407FEFDCF8EB58AE061E00E9481
:1002900028041F910F9108950E944D032091880119
:1002A0003091890140918A0150918B0126173707BF
:1002B00048075907D8F580917C0190917D018F30D6
:1002C000910584F4019690937D0180937C016AE00E
:1002D00070E080E090E00E945E0770930F016093F1
:1002E0000E0104C010927D0110927C010E94190140
:1002F00060917C0170917D0189E192E00E94050787
:100300000E944D032091060130910701442737FDDB
:100310004095542F260F371F481F591F20938801DF
:100320003093890140938A0150938B010895AF92D5
:10033000BF92CF92DF92EF92FF920F931F939B0198
:10034000AC0100D000D00DB71EB70F5F1F4F60E8A3
:1003500070E981E894E00E94D908CA01B9012AE055
:1003600030E040E050E00E94D908CA01B9010E9483
:1003700019082CEF3EEF4DEC5FE30E9480070E94CE
:10038000E80724E630E040E050E0F80120833183C4
:100390004283538321E030E040E050E0B9E1EB2EAE
:1003A000F12C012D112DA1E0AA2EB12CC12CD12CA4
:1003B0000E941507882777FD8095982F21E030E06F
:1003C00040E050E0EDB7FEB721833283438354838E
:1003D000F4E6EF2EF12C012D112DE4E6AE2EB12C1A
:1003E000C12CD12C0E9415079B01AC010F900F90DE
:1003F0000F900F9089E192E0B9010E9405071F91CB
:100400000F91FF90EF90DF90CF90BF90AF90089545
:10041000EF92FF920F931F930E945B0320910801BC
:100420003091090140910A0150910B016217730745
:100430008407950708F05BC080E00E94EA03845DB2
:1004400091408135910508F444C00E945B037B0113
:100450008C018091800190918101A0918201B091E5
:100460008301805F984DAF4FBF4FE816F9060A072A
:100470001B0738F10E941901809178019091790150
:10048000A0917A01B0917B010196A11DB11D8093CD
:10049000780190937901A0937A01B0937B018091C8
:1004A000800190918101A0918201B0918301A80106
:1004B0009701281B390B4A0B5B0BCA01B9010E943B
:1004C0009701E0928001F0928101009382011093E4
:1004D00083010E945B0368517C4F8F4F9F4F609355
:1004E00008017093090180930A0190930B011F91F9
:1004F0000F91FF90EF9008950F931F930E940802B1
:100500000E944C01E0917C01F0917D01EE0FFF1FF4
:10051000E45DFE4F6081718185E090E00E943301CF
:10052000E0917C01F0917D010CE411E0EE0FFF1FE2
:10053000E00FF11F6081718184E090E00E9433013F
:10054000E0917C01F0917D01EE0FFF1FE00FF11FA4
:100550006081718183E090E00E94330180917C0191
:1005600090917D01880F991F080F191FF801608174
:10057000718181E090E00E9433011F910F910895F5
:10058000CF93DF938BE061E00E9408048CE060E091
:100590000E9408048DE061E00E9408048AE061E0A6
:1005A0000E9408048AE061E00E94280480E58CBD76
:1005B0008DB58EB56AE070E080E090E00E94860321
:1005C000C0E0D0E0CE016FEF70E00E9433012196D1
:1005D000C630D105B9F7DF91CF910895809104011C
:1005E00061E00E9408040E94C00289E192E040E8B4
:1005F00055E260E070E00E94B20408950E94B003EA
:100600000E94EE020E947C02FDCF1F920F920FB655
:100610000F9211242F933F938F939F93AF93BF9388
:100620008091900190919101A0919201B0919301DC
:10063000309194010196A11DB11D232F2D5F2D37FF
:1006400020F02D570196A11DB11D20939401809398
:10065000900190939101A0939201B09393018091A6
:100660008C0190918D01A0918E01B0918F01019626
:10067000A11DB11D80938C0190938D01A0938E01DB
:10068000B0938F01BF91AF919F918F913F912F9127
:100690000F900FBE0F901F9018958FB7F894209170
:1006A00090013091910140919201509193018FBF3F
:1006B000B901CA0108956FB7F89486B590E0A0E03B
:1006C000B0E0A89B08C00097A105B10521F480E027
:1006D00091E0A0E0B0E020918C0130918D0140913B
:1006E0008E0150918F016FBF542F432F322F22273D
:1006F000280F391F4A1F5B1F82E0220F331F441F40
:10070000551F8A95D1F7B901CA010895EF92FF925A
:100710000F931F937B018C018FB7F8944091900148
:100720005091910160919201709193018FBF2FB709
:10073000F8948091900190919101A0919201B091D3
:1007400093012FBF841B950BA60BB70BE816F90678
:100750000A071B0760F71F910F91FF90EF90089514
:10076000789484B5826084BD84B5816084BD85B58C
:10077000826085BD85B5816085BDEEE6F0E0808153
:1007800081608083E1E8F0E0808182608083808105
:1007900081608083E0E8F0E0808181608083E1EB2C
:1007A000F0E0808184608083E0EBF0E08081816014
:1007B0008083EAE7F0E080818460808380818260CA
:1007C00080838081816080838081806880831092B3
:1007D000C10008958F7090916C019295990F990FB7
:1007E000907C982B90937C0080917A008064809319
:1007F0007A0080917A0086FDFCCF209178004091AC
:100800007900942F80E030E0282B392BC90108951E
:10081000282F30E0C90186569F4FFC0194912A573A
:100820003F4FF9018491882391F0E82FF0E0EE0F1B
:10083000FF1FE859FF4FA591B491662329F48C91CD
:10084000909589238C9308958C91892B8C9308958E
:10085000482F50E0CA0182559F4FFC012491CA01E4
:1008600086569F4FFC0194914A575F4FFA0134918D
:100870003323D1F1222331F1233021F48091800000
:100880008F7705C0243031F4809180008F7D809374
:10089000800018C0213019F484B58F7704C022304D
:1008A00021F484B58F7D84BD0DC0263021F4809164
:1008B000B0008F7705C0273029F48091B0008F7D7C
:1008C0008093B000E32FF0E0EE0FFF1FEE58FF4FD4
:1008D000A591B491662329F48C91909589238C93EA
:1008E00008958C91892B8C9308951F920F920FB6C7
:1008F0000F9211242F933F934F935F936F937F93A6
:100900008F939F93AF93BF93EF93FF934091C60054
:10091000E0911502F0911602CF01019660E870E0B7
:100920000E94C6089C018091170290911802281716
:10093000390739F0EB56FE4F40833093160220936F
:100940001502FF91EF91BF91AF919F918F917F9190
:100950006F915F914F913F912F910F900FBE0F902C
:100960001F9018955F926F927F928F929F92AF9295
:10097000BF92CF92DF92EF92FF920F931F93CF938C
:10098000DF93EC013A014B01413482E458078FE0D8
:10099000680780E078070CF07FC060E874E88EE1BB
:1009A00090E0A40193010E94FB0821503040404098
:1009B0005040CA01B90122E030E040E050E00E941E
:1009C000FB0859016A01A6019501209530954095D3
:1009D000509594E0220F331F441F551F9A95D1F76D
:1009E00060E074E284EF90E00E94FB08CA01B90164
:1009F0002FEF30E040E050E00E94A708A4019301EF
:100A00000E94FB08C90181509F4F181619061CF45B
:100A1000522E5A9403C055245394521A60E079E040
:100A20008DE390E0A40193010E94FB082150304027
:100A300040405040CA01B90122E030E040E050E0BF
:100A40000E94FB08209530954095509583E0220F39
:100A5000331F441F551F8A95D1F760E074E284EF7D
:100A600090E00E94FB08CA01B9012FEF30E040E09E
:100A700050E00E94A708A40193010E94FB08C9014D
:100A800081509F4F181619061CF4822F815002C006
:100A900081E0821B851500F5E885F98581E090E00D
:100AA0000A8802C0880F991F0A94E2F7808360E0E9
:100AB00079E08DE390E0A40193010E94FB082150AE
:100AC000304040405040CA01B90122E030E040E0EF
:100AD00050E00E94FB0804C0E885F985108295016A
:100AE000EC81FD813083EE81FF812083EA85FB85E7
:100AF000208141E050E0CA010E8402C0880F991F96
:100B00000A94E2F7282B2083EA85FB852081CA011D
:100B10000F8402C0880F991F0A94E2F7282B2083C4
:100B2000EA85FB858081088802C0440F551F0A941E
:100B3000E2F7842B8083DF91CF911F910F91FF907B
:100B4000EF90DF90CF90BF90AF909F908F907F906D
:100B50006F905F900895FC01A085B18521898C91EB
:100B600090E0022E02C0959587950A94E2F780FFE7
:100B7000F6CF0484F585E02D6083089581E791E048
:100B800090931A028093190285E991E090931C02D8
:100B900080931B0285EC90E090931E0280931D02CF
:100BA00084EC90E09093200280931F0280EC90E010
:100BB000909322028093210281EC90E09093240292
:100BC0008093230286EC90E0909326028093250286
:100BD00084E08093270283E08093280287E080935B
:100BE000290285E080932A0281E080932B020895F8
:100BF0000F931F93CF93DF938C01EB0109C02196D4
:100C0000D801ED91FC910190F081E02DC80109958A
:100C100068816623A1F7DF91CF911F910F9108950D
:100C2000EF92FF920F931F93CF93DF938C017B0181
:100C3000EA010CC0D7016D917D01D801ED91FC91C5
:100C40000190F081E02DC80109952197209791F737
:100C5000DF91CF911F910F91FF90EF9008950F9327
:100C60001F938C01DC01ED91FC910190F081E02D4E
:100C70006DE00995D801ED91FC910190F081E02D96
:100C8000C8016AE009951F910F9108952F923F9234
:100C90004F925F926F927F928F929F92AF92BF928C
:100CA000CF92DF92EF92FF920F931F93DF93CF9338
:100CB000CDB7DEB7A0970FB6F894DEBF0FBECDBF9D
:100CC0001C016A017B01411551056105710549F45B
:100CD000DC01ED91FC910190F081E02D60E309953C
:100CE00054C0882499245401422E55246624772424
:100CF00001E010E00C0F1D1F080D191DC701B60102
:100D0000A30192010E94D908F80160830894811C14
:100D1000911CA11CB11CC701B601A30192010E9444
:100D2000D908C901DA016C017D01C114D104E104C3
:100D3000F104F1F681E0E82EF12CEC0EFD1EE80C3A
:100D4000F91C3E010894611C711CD501C401019776
:100D5000A109B1096C01C818D90814C0F601EE0D3B
:100D6000FF1D60816A3010F4605D01C0695CD101D3
:100D7000ED91FC910190F081E02DC101099508945D
:100D8000E108F1086E147F0449F7A0960FB6F894B5
:100D9000DEBF0FBECDBFCF91DF911F910F91FF90AE
:100DA000EF90DF90CF90BF90AF909F908F907F900B
:100DB0006F905F904F903F902F900895EF92FF9229
:100DC0000F931F93CF93DF93EC017A018B0177FF91
:100DD0000FC0E881F9810190F081E02D6DE2099565
:100DE00010950095F094E094E11CF11C011D111D7B
:100DF000CE01B801A7012AE00E944606DF91CF91FB
:100E00001F910F91FF90EF9008950F931F938C0106
:100E1000AB01662757FD6095762F0E94DE06C8015C
:100E20000E942F061F910F9108952F923F924F928B
:100E30005F926F927F928F929F92AF92BF92CF926A
:100E4000DF92EF92FF920F931F93DF93CF93CDB773
:100E5000DEB73B014C0119012A016D897E898F891A
:100E6000988D6A197B098C099D09621A730A840A94
:100E7000950AA40193010E94A708E218F308040947
:100E80001509A80197010E94FB082A0D3B1D4C1D66
:100E90005D1DB901CA01CF91DF911F910F91FF90A4
:100EA000EF90DF90CF90BF90AF909F908F907F900A
:100EB0006F905F904F903F902F900895EF92FF9228
:100EC0000F931F937B018C016115710581059105BD
:100ED00029F420E030E040E050E00BC00E94E00048
:100EE000A80197010E94FB08AC01CB01DA019C012B
:100EF000AD01B901CA011F910F91FF90EF900895C4
:100F00000CD0EBC0E3D040F0DAD030F021F45F3FFA
:100F100019F0CCC0511115C1CFC0F0D098F399236E
:100F2000C9F35523B1F3951B550BBB27AA276217AD
:100F30007307840738F09F5F5F4F220F331F441FF2
:100F4000AA1FA9F333D00E2E3AF0E0E830D091502A
:100F50005040E695001CCAF729D0FE2F27D0660F17
:100F6000771F881FBB1F261737074807AB07B0E856
:100F700009F0BB0B802DBF01FF2793585F4F2AF06C
:100F80009E3F510568F092C0DCC05F3FECF3983E95
:100F9000DCF3869577956795B795F7959F5FC9F7C9
:100FA000880F911D9695879597F90895E1E0660F52
:100FB000771F881FBB1F621773078407BA0720F0CB
:100FC000621B730B840BBA0BEE1F88F7E095089534
:100FD00004D06894B111B5C0089598D088F09F5797
:100FE00090F0B92F9927B751A0F0D1F0660F771F75
:100FF000881F991F1AF0BA95C9F712C0B13081F055
:101000009FD0B1E008959CC0672F782F8827B85FE4
:1010100039F0B93FCCF3869577956795B395D9F7B5
:101020003EF490958095709561957F4F8F4F9F4FBF
:101030000895E89409C097FB3EF4909580957095CB
:1010400061957F4F8F4F9F4F9923A9F0F92F96E914
:10105000BB279395F695879577956795B795F11189
:10106000F8CFFAF4BB0F11F460FF1BC06F5F7F4F26
:101070008F4F9F4F16C0882311F096E911C0772338
:1010800021F09EE8872F762F05C0662371F096E841
:10109000862F70E060E02AF09A95660F771F881F10
:1010A000DAF7880F9695879597F9089597F99F67CE
:1010B00080E870E060E008959FEF80EC08950024E0
:1010C0000A941616170618060906089500240A94AD
:1010D00012161306140605060895092E0394000C33
:1010E00011F4882352F0BB0F40F4BF2B11F460FFC2
:1010F00004C06F5F7F4F8F4F9F4F089557FD9058EB
:10110000440F551F59F05F3F71F04795880F97FBCB
:10111000991F61F09F3F79F0879508951216130685
:101120001406551FF2CF4695F1DF08C016161706B4
:101130001806991FF1CF86957105610508940895E9
:10114000E894BB2766277727CB0197F90895629F1C
:10115000D001739FF001829FE00DF11D649FE00DAF
:10116000F11D929FF00D839FF00D749FF00D659F10
:10117000F00D9927729FB00DE11DF91F639FB00D0F
:10118000E11DF91FBD01CF011124089597FB092E20
:1011900007260AD077FD04D049D006D000201AF4E3
:1011A000709561957F4F0895F6F7909581959F4FC3
:1011B0000895A1E21A2EAA1BBB1BFD010DC0AA1F98
:1011C000BB1FEE1FFF1FA217B307E407F50720F0B0
:1011D000A21BB30BE40BF50B661F771F881F991F2B
:1011E0001A9469F760957095809590959B01AC0174
:1011F000BD01CF01089597FB092E05260ED057FD9E
:1012000004D0D7DF0AD0001C38F4509540953095B3
:1012100021953F4F4F4F5F4F0895F6F7909580957A
:10122000709561957F4F8F4F9F4F0895AA1BBB1BF1
:1012300051E107C0AA1FBB1FA617B70710F0A61BD6
:10124000B70B881F991F5A95A9F780959095BC01F7
:10125000CD010895EE0FFF1F0590F491E02D099444
:101260002F923F924F925F926F927F928F929F92B6
:10127000AF92BF92CF92DF92EF92FF920F931F93A4
:10128000CF93DF93CDB7DEB7CA1BDB0B0FB6F89455
:10129000DEBF0FBECDBF09942A88398848885F8495
:1012A0006E847D848C849B84AA84B984C884DF8006
:1012B000EE80FD800C811B81AA81B981CE0FD11DEA
:1012C0000FB6F894DEBF0FBECDBFED010895F894C0
:0212D000FFCF4E
:1012D20001000000050064008096980001003200C1
:1012E20001003200000032003200320032003200CF
:1012F20064000A00000064000A00C8001400140020
:1013020014000A000A000A000A000A001E001E0059
:101312001E001E0002000200020002000000000087
:10132200000000000000000000000000FF00FF00BD
:10133200FF00FF00FF00FF00FF00FF0001000000B0
:0813420000AB05F805100600E0
:00000001FF
